:1000C50020200A8FFFA7FF347F739F7BA37BB97B1B
:1000D500BD7BBD7BA57B957BB37BBF347FA7FFAF86
:0A00E500FFCFFF012A00020800000F
:1000F000EF1392B7EFA2E192B6A2E292B5A2E39219
:10010000B4A2E492B3A2E592B2A2E692CC3392CD2D
:0101100022CC
:04012600AD07AC066F
:07012A008D90AF040200F00C
:10011100EF1FAC0670011E4C600A7D107C93DCFE63
:04012100DDFC80EC95
:0101250022B7
:10008F007592FFE4F59175B2FFF5B175CAFFF5C929
:10009F00D2B0E4F52AE52A25E0240AF8E6FE08E6C0
:1000AF00FF1201267F017E00120111052AE52AC3E6
:0600BF00941040E180DC1A
:03000000020003F8
:0C000300787FE4F6D8FD75812A02004ADF
:10000F0002008FE493A3F8E493A34003F68001F278
:10001F0008DFF48029E493A3F85407240CC8C333F2
:10002F00C4540F4420C8834004F456800146F6DFC1
:10003F00E4800B01020408102040809000C5E47E8C
:10004F00019360BCA3FF543F30E509541FFEE493B6
:10005F00A360010ECF54C025E060A840B8E493A37D
:10006F00FAE493A3F8E493A3C8C582C8CAC583CAA8
:10007F00F0A3C8C582C8CAC583CADFE9DEE780BE60
:0100EF000010
:00000001FF
